{
  "contractName": "Todolist",
  "abi": [
    {
      "constant": true,
      "inputs": [
        {
          "name": "",
          "type": "uint256"
        }
      ],
      "name": "tasks",
      "outputs": [
        {
          "name": "taskId",
          "type": "uint256"
        },
        {
          "name": "taskName",
          "type": "string"
        },
        {
          "name": "status",
          "type": "int256"
        }
      ],
      "payable": false,
      "stateMutability": "view",
      "type": "function",
      "signature": "0x8d977672"
    },
    {
      "constant": true,
      "inputs": [],
      "name": "numberoftask",
      "outputs": [
        {
          "name": "",
          "type": "uint256"
        }
      ],
      "payable": false,
      "stateMutability": "view",
      "type": "function",
      "signature": "0xb6a8c39d"
    },
    {
      "inputs": [],
      "payable": false,
      "stateMutability": "nonpayable",
      "type": "constructor",
      "signature": "constructor"
    },
    {
      "constant": false,
      "inputs": [
        {
          "name": "_taskName",
          "type": "string"
        }
      ],
      "name": "AddTask",
      "outputs": [],
      "payable": false,
      "stateMutability": "nonpayable",
      "type": "function",
      "signature": "0x49d5540f"
    }
  ],
  "bytecode": "0x60806040526000805534801561001457600080fd5b5060408051808201909152600b81527f5374726976652048617264000000000000000000000000000000000000000000602082015261005b90640100000000610060810204565b61015a565b6000805460019081018083556040805160608101825282815260208082018781526000198385015293865284815291909420845181559151805192936100ae939085019291909101906100bf565b506040820151816002015590505050565b828054600181600116156101000203166002900490600052602060002090601f016020900481019282601f1061010057805160ff191683800117855561012d565b8280016001018555821561012d579182015b8281111561012d578251825591602001919060010190610112565b5061013992915061013d565b5090565b61015791905b808211156101395760008155600101610143565b90565b6103bf806101696000396000f3fe6080604052600436106100565763ffffffff7c010000000000000000000000000000000000000000000000000000000060003504166349d5540f811461005b5780638d97767214610110578063b6a8c39d146101c0575b600080fd5b34801561006757600080fd5b5061010e6004803603602081101561007e57600080fd5b81019060208101813564010000000081111561009957600080fd5b8201836020820111156100ab57600080fd5b803590602001918460018302840111640100000000831117156100cd57600080fd5b91908080601f0160208091040260200160405190810160405280939291908181526020018383808284376000920191909152509295506101e7945050505050565b005b34801561011c57600080fd5b5061013a6004803603602081101561013357600080fd5b5035610246565b6040518084815260200180602001838152602001828103825284818151815260200191508051906020019080838360005b8381101561018357818101518382015260200161016b565b50505050905090810190601f1680156101b05780820380516001836020036101000a031916815260200191505b5094505050505060405180910390f35b3480156101cc57600080fd5b506101d56102f2565b60408051918252519081900360200190f35b600080546001908101808355604080516060810182528281526020808201878152600019838501529386528481529190942084518155915180519293610235939085019291909101906102f8565b506040820151816002015590505050565b600160208181526000928352604092839020805481840180548651600296821615610100026000190190911695909504601f810185900485028601850190965285855290949193929091908301828280156102e25780601f106102b7576101008083540402835291602001916102e2565b820191906000526020600020905b8154815290600101906020018083116102c557829003601f168201915b5050505050908060020154905083565b60005481565b828054600181600116156101000203166002900490600052602060002090601f016020900481019282601f1061033957805160ff1916838001178555610366565b82800160010185558215610366579182015b8281111561036657825182559160200191906001019061034b565b50610372929150610376565b5090565b61039091905b80821115610372576000815560010161037c565b9056fea165627a7a723058207fd76e203b0bf3b94053037cdd5b22f7d6a768ce5e06bb0e421dba7c7470de790029",
  "source": "// SPDX-License-Identifier: MIT\r\npragma solidity >=0.4.22 <0.9.0;\r\ncontract Todolist{\r\n    uint public numberoftask = 0;\r\n\r\n    struct Task{\r\n        uint taskId;\r\n        string taskName;\r\n        int status;\r\n    }\r\n\r\nmapping(uint=>Task) public tasks;\r\n\r\nconstructor()public\r\n{\r\n    AddTask(\"Strive Hard\");\r\n}\r\n\r\nfunction AddTask(string memory _taskName) public\r\n    {\r\n        numberoftask++;\r\n        tasks[numberoftask]=Task(numberoftask,_taskName,-1);\r\n    }\r\n} \r\n",
  "sourcePath": "C:/Users/aayushi/Desktop/work/blockchain/eth-to-to-list/contracts/Todo-list.sol",
  "compiler": {
    "name": "solc",
    "version": "0.5.0+commit.1d4f565a.Emscripten.clang"
  },
  "schemaVersion": "3.0.1",
  "updatedAt": "2022-08-30T08:52:14.849Z",
  "devdoc": {
    "methods": {}
  },
  "userdoc": {
    "methods": {}
  }
}